:020000040800F2
:10000000E8040020450100083905000865050008DE
:10001000690500086D050008710500080000000072
:10002000000000000000000000000000750500084E
:100030007705000800000000790500087B0500082E
:100040005F0100085F0100085F0100085F01000810
:100050005F0100085F0100085F01000881050008DA
:1000600083050008850500085F0100085F0100089E
:100070005F0100085F0100085F0100085F010008E0
:100080005F0100085F0100085F0100085F010008D0
:100090005F0100085F0100085F0100087F0500089C
:1000A0005F0100085F0100085F0100085F010008B0
:1000B0005F0100087D0500085F0100085F0100087E
:1000C0005F0100085F0100085F0100085F01000890
:1000D0005F0100083B0500083D0500085F010008BE
:1000E0005F0100085F0100085F0100085F01000870
:1000F0005F0100085F0100085F0100085F01000860
:100100005F0100085F0100085F0100085F0100084F
:100110005F0100085F0100085F0100085F0100083F
:100120005F0100085F0100085F0100085F0100082F
:10013000DFF80CD002F00AFD004800474F0200082B
:10014000E80400200648804706480047FEE7FEE72F
:10015000FEE7FEE7FEE7FEE7FEE7FEE7FEE7FEE777
:10016000FB2200083101000870B504460D46E1B2DB
:100170008E4801F005FE00BF80218C4801F06EFE24
:100180000028F9D0204670BD08B54FF4C06001F0DA
:100190004DFC25208DF8000000208DF80100022084
:1001A0008DF8020001208DF80300684601F043FC41
:1001B00008BD1FB54FF4E13000900020ADF80400F9
:1001C000ADF80600ADF80800ADF80C000C20ADF855
:1001D0000A006946754801F0DAFC012240F2255117
:1001E000724801F06CFD0121704801F05CFD402176
:1001F0006E4801F040FE1FBD08B54FF40070ADF829
:10020000000003208DF8020018208DF803006946D5
:10021000674801F0EBF84FF48060ADF8000004206F
:100220008DF803006946624801F0E0F808BD10B59A
:1002300002F063F80121042001F094FB01218803FE
:1002400001F090FB0121084601F08CFB10BD1FB5A9
:100250000024FFF7ECFFFFF7CFFFFFF7AAFFFFF740
:1002600093FF00F093F900F0F9FB00F09EFD00F021
:1002700075FF50A002F0AEFC58A002F0ABFC60A0ED
:1002800002F0A8FC00F0CFFE68490870084600782C
:10029000012803D166A002F09DFC02E058A002F004
:1002A00099FC4FF47A7000F02AF900F034FB6749AA
:1002B0006748006802F0A2F80290029802F0E1F9A3
:1002C00005462A460B4663A002F084FC6349029867
:1002D00002F0E6F882460021504602F00BFA10D2F6
:1002E000504602F0CEF9074600225D4B02F04EF96F
:1002F000054602F0D9F983465946012000F08FFCEB
:1003000014E05146002002F0CBF80090009802F073
:10031000B8F907460022524B02F038F9054602F0C0
:10032000C3F983465946012000F0BEFB41F28830F4
:1003300000F0E5F838E000F0CDFF00F0ECFA4349BA
:100340004348006802F05AF803900A2000F0D7F8FA
:1003500000F0E1FA3D493E48006802F04FF80446DB
:100360002046039902F09CF881460021484602F09D
:10037000C1F90AD24FF08041484602F097F805468D
:100380002946012000F04BFC0EE04946002002F017
:1003900087F801904FF08041019802F087F80546F8
:1003A0002946012000F080FBC5E70000003801402D
:1003B000000801400D0A20D5E2CAC7D2BBB8F6201A
:1003C0004E524632344C303120CEDECFDFB4ABCA91
:1003D000E4CAB5D1E9200D0A000000000D0A20D5BD
:1003E000E2CAC7CEDECFDFB4ABCAE420B4D3BBFAD7
:1003F000B6CB20B5C4B7B4C0A1D0C5CFA20D0A00FA
:100400000D0A202020D5FDD4DABCECB2E24E5246D3
:10041000D3EB4D4355CAC7B7F1D5FDB3A3C1ACBDAE
:10042000D3A1A3A1A3A1A30D0A00000000000020F6
:100430000D0A2020202020204E5246D3EB4D43555C
:10044000C1ACBDD3B3C9B9A60D0A00000000344346
:10045000080000207961773D25660A0000001643F8
:100460000000F83F10B501F00FF94FF4803001F0B3
:100470002BF901F068F9012820D1002001F0A9F939
:10048000002001F0B8F94FF4806001F0ABF94FF4AF
:10049000E0114FF4803001F07FF9012001F088F97C
:1004A00000BF392001F033F90028FAD0022001F012
:1004B00082F900BF01F088F90828FBD110BD00E0E7
:1004C000401E0028FCD17047014601EBC1024FF0ED
:1004D000E0235A6100229A6101221A6100BF4FF0A5
:1004E000E022106900F001021AB100F48032002A03
:1004F000F5D000224FF0E0231A619A61704701465F
:1005000042F228324A434FF0E0235A6100229A61B6
:1005100001221A6100BF4FF0E022106900F00102D1
:100520001AB100F48032002AF5D000224FF0E02307
:100530001A619A61704700007047704710B540F229
:100540002551114801F0A0FC58B10F4801F01CFCE6
:10055000C4B2204600F0FBF940F225510A4801F0F0
:10056000BDFC10BD00BFFEE700BFFEE700BFFEE719
:1005700000BFFEE77047704770477047704770478D
:1005800070477047704700000044004000B587B0D6
:100590000121480401F0F3F90420ADF8180003200C
:1005A0008DF81A0018208DF81B0006A9F94800F0F4
:1005B0001DFF0820ADF8180004208DF81B0006A9C7
:1005C000F44800F013FF4FF4C06001F02FFA26202A
:1005D0008DF8140000208DF8150001208DF816000C
:1005E0008DF8170005A801F026FA4FF4E1300190CC
:1005F0000020ADF80800ADF80A00ADF80C00ADF829
:1006000010000C20ADF80E0001A9E34801F0BFFA7C
:10061000012240F22551E04801F051FB0121DE4862
:1006200001F041FB4021DC4801F025FC07B000BD92
:1006300070B50024D9488478200204B2D748C07825
:10064000044304F4004020B1C4F30E00404204B25D
:1006500001E0C4F30E04204602F00AF80546D04932
:1006600001F056FFCF4908600024CC4804792002ED
:1006700004B2CA484079044304F4004020B1C4F3F2
:100680000E00404204B201E0C4F30E04204601F023
:10069000EFFF0546C24901F03BFFC3490860002453
:1006A000BE488479200204B2BC48C079044304F4F3
:1006B000004020B1C4F30E00404204B201E0C4F394
:1006C0000E04204601F0D4FF0546B54901F020FF95
:1006D000B64908600024B148047A200204B2AF4849
:1006E000407A044304F4004020B1C4F30E004042B9
:1006F00004B201E0C4F30E04204601F0B9FF054640
:10070000A74901F005FFAA4908600024A348847A9C
:10071000200204B2A148C07A044304F4004020B18E
:10072000C4F30E00404204B201E0C4F30E042046BC
:1007300001F09EFF05469A4901F0EAFE9D490860D6
:1007400000249648047B200204B29448407B044372
:1007500004F4004020B1C4F30E00404204B201E0B2
:10076000C4F30E04204601F083FF05468C4901F0D6
:100770009DFE9149086070BD00208849887801027B
:1007800008B28649C978084300F4004121B1C0F39A
:100790000E01494208B201E0C0F30E00874908800B
:1007A00000207E490879010208B27C494979084352
:1007B00000F4004121B1C0F30E01494208B201E04A
:1007C000C0F30E007E490880002074498879010238
:1007D00008B27249C979084300F4004121B1C0F35D
:1007E0000E01494208B201E0C0F30E0075490880CD
:1007F00000206A49087A010208B26849497A084328
:1008000000F4004121B1C0F30E01494208B201E0F9
:10081000C0F30E006C49088000206049887A01020C
:1008200008B25E49C97A084300F4004121B1C0F31F
:100830000E01494208B201E0C0F30E00634908808E
:1008400000205649087B010208B25449497B0843FD
:1008500000F4004121B1C0F30E01494208B201E0A9
:10086000C0F30E005A49088000204C49887B0102E1
:1008700008B24A49C97B084300F4004121B1C0F3E2
:100880000E01494208B201E0C0F30E005149088050
:1008900000204249087C010208B24049497C0843D3
:1008A00000F4004121B1C0F30E01494208B201E059
:1008B000C0F30E004849088000203849887C0102B6
:1008C00008B23649C97C084300F4004121B1C0F3A5
:1008D0000E01494208B201E0C0F30E003F49088012
:1008E000704710B50022002104E02C48405C02440F
:1008F000481CC1B229480078801E8842F5DCD3B27A
:1009000026480078801E254C205C834201D10120BE
:1009100010BD0020FCE710B53148007800F0400021
:10092000A0B12F48007820F040002D490870FFF753
:10093000D8FF58B119484078A12801D1FFF778FEB7
:1009400016484078A22801D1FFF716FF10BD10B558
:100950000446A52C0DD12248007840F080002049A3
:10096000087020490878411C1E4A11700B490C542C
:1009700064E05A2C47D11A48007800F0800098B300
:100980000020184908701648007820F040001449EB
:10099000087031E00008014000440040840000205D
:1009A00000002041080000200C0000201000002062
:1009B00014000020180000201C000020200000204F
:1009C0002200002024000020260000202800002013
:1009D0002A0000202C0000202E00002030000020E3
:1009E0000500002004000020FFE719490878411C99
:1009F000174A117017490C541748007820F08000EE
:100A0000154908701AE012490878411C104A117003
:100A100010490C541048007820F080000E490870EE
:100A20000C48007811460978884207D10A480078B6
:100A300040F0400008490870FFF76DFF0448007857
:100A4000642804D102480078401E0149087010BD96
:100A500004000020840000200500002008B50121CA
:100A6000102000F07FFF4FF47070ADF800000320FD
:100A70008DF8020010208DF803006946C54800F08B
:100A8000B5FC4021C34800F05EFD8021C14800F064
:100A90005AFD4FF48071BF4800F055FD4FF40071CE
:100AA000BC4800F050FD08BD2DE9F04104460E465B
:100AB000002500BFA8E04021B64800F046FD802197
:100AC000B44800F040FD4FF48071B24800F03BFDA7
:100AD0004FF40071AF4800F036FDA0B2FFF70FFDF4
:100AE0004021AC4800F031FD8021AA4800F02DFDE6
:100AF0004FF48071A74800F026FD4FF40071A5481F
:100B000000F021FDA0B2FFF7FAFC4021A14800F05F
:100B10001AFD80219F4800F018FD4FF480719D4818
:100B200000F011FD4FF400719A4800F00CFDA0B2E6
:100B3000FFF7E5FC4021974800F005FD802195482E
:100B400000F003FD4FF48071924800F0FEFC4FF47A
:100B50000071904800F0F7FCA0B2FFF7D0FC4021F4
:100B60008C4800F0F0FC80218A4800F0ECFC4FF447
:100B70008071884800F0E9FC4FF40071854800F06E
:100B8000E2FCA0B2FFF7BBFC4021824800F0DBFC96
:100B90008021804800F0D7FC4FF480717D4800F040
:100BA000D4FC4FF400717B4800F0CFFCA0B2FFF7FB
:100BB000A6FC4021774800F0C6FC8021754800F073
:100BC000C2FC4FF48071734800F0BDFC4FF400711B
:100BD000704800F0BAFCA0B2FFF791FC40216D48CC
:100BE00000F0B3FC80216B4800F0ADFC4FF4807145
:100BF000684800F0A8FC4FF40071664800F0A5FCBE
:100C0000A0B2FFF77CFC6D1C284601F031FD0746C1
:100C1000314601F065FDFFF44EAFBDE8F0812DE9EE
:100C2000F04104460E46002500BFA8E04021594887
:100C300000F08BFC8021574800F085FC4FF4807158
:100C4000544800F080FC4FF40071524800F07DFCE5
:100C5000A0B2FFF754FC40214E4800F074FC802104
:100C60004C4800F070FC4FF480714A4800F06BFC77
:100C70004FF40071474800F068FCA0B2FFF73FFC5A
:100C80004021444800F05FFC8021424800F05BFCBA
:100C90004FF480713F4800F058FC4FF400713D481C
:100CA00000F053FCA0B2FFF72AFC4021394800F0C5
:100CB0004AFC8021374800F046FC4FF480713548EB
:100CC00000F043FC4FF40071324800F03CFCA0B24D
:100CD000FFF715FC40212F4800F035FC80212D48FE
:100CE00000F033FC4FF480712A4800F02EFC4FF4E2
:100CF0000071284800F027FCA0B2FFF700FC40215B
:100D0000244800F020FC8021224800F01EFC4FF413
:100D10008071204800F017FC4FF400711D4800F06E
:100D200012FCA0B2FFF7EBFB40211A4800F00DFCCB
:100D30008021184800F009FC4FF48071154800F03C
:100D400002FC4FF40071134800F0FDFBA0B2FFF766
:100D5000D6FB40210F4800F0F8FB80210D4800F041
:100D6000F2FB4FF480710B4800F0EDFB4FF4007183
:100D7000084800F0E8FBA0B2FFF7C1FB6D1C284655
:100D800001F076FC0746314601F0AAFCFFF44EAFB5
:100D9000BDE8F0810010014001B502E00098401E5E
:100DA000009000980028F9D108BD00B587B0012156
:100DB0004FF4AE7000F0D6FD0121080300F0D2FD23
:100DC000E020ADF8040001208DF8060018208DF811
:100DD000070001A9DA4800F009FB6020ADF8040023
:100DE00001208DF8060010208DF8070001A9D548D4
:100DF00000F0FCFA8020ADF8040001208DF8060018
:100E000048208DF8070001A9CE4800F0EFFA4021F4
:100E1000CC4800F098FB0020ADF808004FF4827039
:100E2000ADF80A000020ADF80C00ADF80E00ADF8EA
:100E300010004FF40070ADF812001020ADF814004F
:100E40000020ADF816000720ADF8180002A9BE4832
:100E500001F084F80121BC4801F025F907B000BD7C
:100E600010B5044600BF0221B74801F0A0F90028E0
:100E7000F9D02146B44801F047F900BF0121B2483A
:100E800001F095F90028F9D0AF4801F03FF9C0B260
:100E900010BD70B505460C462021AA4800F055FB50
:100EA0004021A84800F051FB2846FFF7D9FF06462D
:100EB0002046FFF7D5FF4021A24800F044FB304612
:100EC00070BD70B5044620219E4800F03EFB4021D5
:100ED0009C4800F03AFB2046FFF7C2FFFF20FFF7D7
:100EE000BFFF05464021974800F02DFB284670BD06
:100EF0002DE9F04107460D4616462021914800F0A5
:100F000024FB40218F4800F020FB3846FFF7A8FF64
:100F10008046002405E0FF20FFF7A2FF2855601C53
:100F2000C4B2B442F7DB4021864800F00CFB4046D7
:100F3000BDE8F0812DE9F04107460C461546202119
:100F4000804800F002FB40217E4800F0FEFA38465F
:100F5000FFF786FF8046002605E014F8010BFFF737
:100F60007FFF701CC6B2AE42F7DB4021754800F02F
:100F7000EAFA4046BDE8F08110B52021714800F042
:100F8000E4FA052271492A20FFF7D4FF012121202C
:100F9000FFF77FFF01212220FFF77BFF282125207B
:100FA000FFF777FF01213120FFF773FF0F21262084
:100FB000FFF76FFF0F212020FFF76BFF2021614813
:100FC00000F0C1FA10BD10B520215E4800F0BDFA56
:100FD00005225F493020FFF7ADFF05225B492A203B
:100FE000FFF7A8FF01212120FFF753FF0121222055
:100FF000FFF74FFF1A212420FFF74BFF2821252060
:10100000FFF747FF0F212620FFF743FF0E21202087
:10101000FFF73FFF20214B4800F095FA4FF6FF7095
:10102000FFF7BAFE10BD1FB54AA103C9CDE9020101
:10103000052202A93020FFF77DFF05226946102016
:10104000FFF756FF002406E01DF80400C22800D078
:1010500003E0601CC4B2052CF6DB00BF052C02D1F6
:10106000012004B010BD0020FBE770B5054620212B
:10107000344800F06AFA01222946A020FFF75AFFFF
:101080002021304800F05FFA00BF80212D4800F099
:1010900040FA0028F9D10720FFF713FF0446214644
:1010A0002720FFF7F6FEFF21E120FFF7F2FE04F014
:1010B000100008B1102070BD04F0200008B12020FD
:1010C000F9E70020F7E770B50546002620211D4806
:1010D00000F039FA07E0761C0220FFF710FA0A2E1A
:1010E00001DB002070BD8021164800F012FA0028B4
:1010F000F1D12021134800F028FA0720FFF7E1FE84
:10110000044621462720FFF7C4FE04F0400050B1FA
:10111000012229466120FFF7EBFEFF21E220FFF7C5
:10112000B8FE4020DEE70020DCE770B50446FFF79C
:1011300023FF2046FFF7C7FF0546284670BD000085
:1011400000080140000C0140003001405000002028
:101150004B000020C2C2C2C2C200000008B501217B
:101160000C2000F0FFFB40F60370ADF800001020EB
:101170008DF8030003208DF802006946694800F0ED
:1011800035F94FF4C050ADF800006946664800F0EC
:101190002DF908BD10B50121624800F0D4F90221F3
:1011A000604800F0D2F94FF480715E4800F0CBF94E
:1011B0004FF400715B4800F0C8F94FF48061594862
:1011C00000F0C1F94FF40061564800F0BEF94FF449
:1011D0000061554800F0B7F94FF48051524800F0D3
:1011E000B4F910BD10B501214E4800F0ACF9022150
:1011F0004C4800F0A8F94FF480714A4800F0A3F978
:101200004FF40071474800F09EF94FF48061454863
:1012100000F099F94FF40061424800F094F94FF45E
:101220000061414800F08FF94FF480513E4800F0D2
:101230008AF910BD10B501213A4800F086F9022163
:10124000384800F080F94FF48071364800F07DF99D
:101250004FF40071334800F076F94FF48061314863
:1012600000F073F94FF400612E4800F06CF94FF470
:1012700000612D4800F069F94FF480512A4800F0D0
:1012800062F910BD10B50121264800F05CF9022179
:10129000244800F05AF94FF48071224800F053F9C5
:1012A0004FF400711F4800F04EF94FF480611D4863
:1012B00000F049F94FF400611A4800F044F94FF486
:1012C0000061194800F03FF94FF48051164800F0D2
:1012D0003CF910BD10B50121124800F034F902218B
:1012E000104800F030F94FF480710E4800F02BF9EF
:1012F0004FF400710B4800F028F94FF48061094861
:1013000000F021F94FF40061064800F01EF94FF497
:101310000061054800F017F94FF48051024800F0D1
:1013200012F910BD000C01400008014010B5044640
:10133000CC48844208D10121042000F02DFB00217B
:10134000042000F029FB46E0C748844208D101216F
:10135000082000F021FB0021082000F01DFB3AE0EE
:10136000C248844208D10121102000F015FB002161
:10137000102000F011FB2EE0BD48844208D101216D
:10138000202000F009FB0021202000F005FB22E0D6
:10139000B848844208D10121402000F0FDFA002124
:1013A000402000F0F9FA16E0B348844208D1012148
:1013B000802000F0F1FA0021802000F0EDFA0AE030
:1013C000AE48844207D10121801500F0E5FA0021E2
:1013D000A01500F0E1FA10BD10B50121084600F09B
:1013E000DBFA0021012000F0D7FA10BD2DE9F04111
:1013F000024600250026002000230024002791F843
:1014000003C00CF00F0591F803C00CF0100CBCF1F8
:10141000000F03D091F802C04CEA050591F800C016
:10142000BCF1000F31D0146800202BE04FF0010C0C
:101430000CFA00F3B1F800C00CEA03069E4220D17A
:1014400083004FF00F0C0CFA03F7BC4305FA03FCC2
:101450004CEA040491F803C0BCF1280F06D14FF008
:10146000010C0CFA00FCC2F814C00AE091F803C0A9
:10147000BCF1480F05D14FF0010C0CFA00FCC2F88A
:1014800010C0401C0828D1D31460B1F800C0BCF1D2
:10149000FF0F34DD546800202EE000F1080C4FF0FF
:1014A000010808FA0CF3B1F800C00CEA03069E42EA
:1014B00021D183004FF00F0C0CFA03F7BC4305FA5F
:1014C00003FC4CEA040491F803C0BCF1280F05D1D9
:1014D00000F1080C08FA0CF8C2F8148091F803C067
:1014E000BCF1480F07D100F1080C4FF0010808FAD1
:1014F0000CF8C2F81080401C0828CED35460BDE818
:10150000F0814FF6FF710180022181700421C170CA
:1015100070470246002093680B400BB1012000E0A9
:10152000002070470146886880B27047024600205C
:10153000D3680B400BB1012000E00020704701464A
:10154000C86880B2704701617047416170470AB155
:10155000016100E041617047C16070474FF4803223
:101560000A438261816182618269826970470246B1
:101570000020434B18684FF68073184040EA021071
:1015800008433F4B186070473E49C8617047F0B54B
:101590000A46002300240021002500F00046B6F191
:1015A000004F02D1364EF16901E0354E7168C0F34B
:1015B000034583B200F44016B6F5401F08D121F070
:1015C00070612F4E766826F070662D4F7E6012E0B7
:1015D00000F48016B6F5801F06D1032606FA05F43E
:1015E000A14341F0706106E0460D360103FA06F6AC
:1015F000B14341F0706122B1460D360103FA06F69F
:10160000314300F00046B6F1004F02D11C4EF161AB
:1016100001E01B4E7160F0BD30B500228B071C0F3E
:101620000F2303FA04F2164B08338C1053F82430BE
:101630009343134C08348D1044F8253023468C1006
:1016400053F824308C07240F00FA04F423430C4C85
:1016500008348D1044F8253030BD0A49DC3108606B
:101660007047000000080140000C014000100140DC
:101670000014014000180140001C014000200140FE
:101680000000014000002042DF48006840F00100F7
:10169000DD49086008464068DC490840DA4948608E
:1016A00008460068DA490840D749086008460068DB
:1016B00020F4802008600846406820F4FE0048605E
:1016C0004FF41F0088607047CF49096821F48031CA
:1016D000CD4A11601146096821F480211160B0F5EE
:1016E000803F03D0B0F5802F0ED106E0C6490968CF
:1016F00041F48031C44A116007E0C349096841F4EC
:10170000A021C14A116000E000BF00BF704710B5C2
:1017100001460022002300204A11012A02D1BA4CBE
:10172000236806E0022A02D1B74C236A01E0B64CD6
:10173000636A01F01F02012494401C400CB1012097
:1017400000E0002010BD38B50020009000240025E6
:1017500000BF3120FFF7DBFF05460098401C0090DA
:101760000098B0F5A06F01D0002DF2D03120FFF726
:10177000CEFF08B1012400E00024204638BD014618
:101780000020A14A106820F0F80040EAC100106073
:101790007047A04908607047024600209A4B58687D
:1017A00020F47C1042EA01031843974B58607047BD
:1017B00098490866704701460020934A506820F017
:1017C00003000843506070478F48406800F00C00E9
:1017D0007047014600208C4A506820F0F000084312
:1017E0005060704701460020874A506820F4E0604E
:1017F00008435060704701460020834A506820F437
:10180000605040EAC1005060704729B17E4A527A68
:1018100002437D4B5A7204E07B4A527A82437A4BF0
:101820005A7270477B49D8310860704701460020E2
:10183000754A506820F440400843506070470021CA
:10184000714A20321170704A82F82010012802D0AB
:1018500004280AD104E001216B4A2032117005E00E
:101860000521694A2032117000E000BF00BF7047B7
:101870006949086070476449096A0143624A116214
:101880007047654944390860704730B5002100222F
:10189000002400235C4D6D6805F00C0121B1042982
:1018A00005D0082923D105E05C4D056022E05B4DA1
:1018B00005601FE0544D6D6805F47012524D6D685F
:1018C00005F48034022505EB92421CB9544D554372
:1018D00005600BE04C4D6D6805F400351DB1504DB1
:1018E0005543056002E04D4D5543056002E04B4D08
:1018F000056000BF00BF444D6D6805F0F0010909A7
:10190000484D6B5C0568DD4045603F4D6D6805F4F2
:10191000E061090A434D6B5C4568DD4085603A4DE6
:101920006D6805F46051C90A3E4D6B5C4568DD4049
:10193000C560354D6D6805F44041890B3A4D6B5CCF
:10194000C568B5FBF3F5056130BD29B12E4A526972
:1019500002432D4B5A6104E02B4A526982432A4BC1
:101960005A61704729B1284A92690243264B9A610D
:1019700004E0254A92698243234B9A61704729B15A
:10198000214AD2690243204BDA6104E01E4AD2693F
:1019900082431D4BDA61704729B11B4AD26802436A
:1019A000194BDA6004E0184AD2688243164BDA60B9
:1019B000704729B1144A12690243134B1A6104E0BB
:1019C000114A12698243104B1A617047124940391B
:1019D000086070470F49C86470470B49C871704769
:1019E0000948406A40F080700749486270470146E4
:1019F0000020054A92680A400AB1012000E0002058
:101A00007047014988727047001002400000FFF8DB
:101A1000FFFFF6FE000042428004424200127A00BC
:101A200000093D00550000206500002031490143B8
:101A3000314A1160704770B5002100230F22C4782D
:101A400004B32D4C246804F4E064C4F5E064210A76
:101A5000C1F10403CA40447804FA03F184781440C5
:101A600021430901254C0678A155047804F01F058F
:101A70000124AC4005786D11AD0005F1E025C5F8F5
:101A8000004109E0047804F01F050124AC401C4D1E
:101A90000678761145F8264070BD1A4A0A4002437E
:101AA000154B1B1F1A60704739B1134A121D12687B
:101AB0000243114B1B1D1A6006E00F4A121D1268EB
:101AC00082430D4B1B1D1A607047042808D14FF04C
:101AD000E021096941F004014FF0E022116107E0C3
:101AE0004FF0E021096921F004014FF0E02211617B
:101AF000704700000000FA050CED00E000E400E093
:101B000080E100E080FFFF1F10B50446FB488442DF
:101B100009D101218803FFF73FFF00214FF48040E6
:101B2000FFF73AFF32E0F648844209D10121480428
:101B3000FFF73FFF00214FF40030FFF73AFF25E0A9
:101B4000F048844209D101218804FFF732FF0021C7
:101B50004FF48020FFF72DFF18E0EB48844209D1B5
:101B60000121C804FFF725FF00214FF40020FFF7F3
:101B700020FF0BE0E548844208D101210805FFF76A
:101B800018FF00214FF48010FFF713FF10BD2DE95F
:101B9000F04786B005460E460024A24600BFA14687
:101BA0000027B08900B100BF2F462C8A4CF6FF7089
:101BB0000440F08804432C82AC894EF6F3100440B4
:101BC000B08831890843718908430443AC81AC8AE9
:101BD0004FF6FF400440B0890443AC8201A8FFF7F0
:101BE00054FEC648874202D1DDF810A001E0DDF8BE
:101BF0000CA0A88900F4004040B10AEBCA0000EB39
:101C00000A1031684900B0FBF1F807E00AEBCA009E
:101C100000EB0A1031688900B0FBF1F86420B8FBD2
:101C2000F0F004012009642101FB1089A88900F467
:101C3000004040B1322000EBC900B0FBF1F000F0F1
:101C40000700044308E0322000EB09106421B0FBD8
:101C5000F1F000F00F0004432C8106B0BDE8F087DE
:101C60004FF41651016000218180C18001810C2157
:101C7000418100218181704710B502460020108A01
:101C80004FF2FF0318400B884C8823438C88234372
:101C9000CC8823431843108210BD0021018041806D
:101CA0008180C180704721B1828942F400528281D3
:101CB00004E082894DF6FF731A4082817047F0B5C7
:101CC0000346002400260025002040F66A17B9428A
:101CD00000D100BF1846C1F3421401F01F060127CE
:101CE00007FA06F5012C01D10C3004E0022C01D1D9
:101CF000103000E014301AB107682F43076002E08B
:101D00000768AF430760F0BD1AB1838A0B43838233
:101D100002E0838A8B4383827047028A4FF6F07316
:101D20001A400282028A0A430282704782894FF275
:101D3000FF731A40828182890A438281704721B1F0
:101D4000828942F00202828104E082894FF6FD73AB
:101D50001A4082817047028A4FF6DF731A4002826E
:101D6000028A0A430282704721B1028A42F4804209
:101D7000028204E0028A4BF6FF731A400282704727
:101D8000C1F308028280704701468888C0F30800CA
:101D90007047818941F0010181817047028BD2B285
:101DA0000283028B42EA012202837047028B02F413
:101DB0007F420283028B0A430283704721B1828AE9
:101DC00042F02002828204E0828A4FF6DF731A40DA
:101DD0008282704721B1828A42F01002828204E03E
:101DE000828A4FF6EF731A408282704721B1828A4D
:101DF00042F00802828204E0828A4FF6F7731A40AA
:101E00008282704721B1828942F40042828103E0DC
:101E10008289C2F30E028281704721B1828A42F424
:101E20000062828204E0828A4FF2FF731A4082824B
:101E30007047828A4FF6FB731A408282828A0A4375
:101E40008282704721B1828A42F00202828204E0DB
:101E5000828A4FF6FD731A40828270470246002044
:101E6000B1F5007F00D100BF13880B400BB10120FA
:101E700000E00020704701F40072B2F5007F00D14D
:101E800000BFCA430280704770B502460024002399
:101E90000025002040F66A16B14200D100BFC1F310
:101EA000421501F01F03012606FA03F3012D02D1AA
:101EB0009689334006E0022D02D1168A334001E0B4
:101EC000968A33400C12012606FA04F41688344030
:101ED00013B10CB1012000E0002070BD10B500224C
:101EE000002340F66A14A14200D100BF0A12012467
:101EF0009440A3B2DC43048010BD000000380140D0
:101F00000044004000480040004C004000500040A9
:101F100010B50446BE48844208D101218014FFF761
:101F20003BFD0021A014FFF737FD16E0B9488442BD
:101F300008D101210014FFF73CFD00212014FFF718
:101F400038FD0AE0B448844207D10121C013FFF7ED
:101F500030FD0021E013FFF72CFD10BD10B500226D
:101F6000028802F441520B884C8823438C88234317
:101F7000CC8823430C8923434C8923438C892343F6
:101F8000CC8923431A430280838B4FF2FF74234092
:101F900083830B8A038210BD2DE9F04F85B005467F
:101FA0000C464FF0000902274FF000084FF0010BDC
:101FB0000026B246A88B4FF240010840A8830220B9
:101FC0002884B5F81C90A068022801D100BF38E031
:101FD000A08810B94FF0010B01E04FF0020B8D48C3
:101FE000854200D100E000BF6846FFF74EFCDDF8F7
:101FF00000A0E088B0F5007F0AD14FEA1A2000EB7C
:1020000080004000A168B0FBF1F0401D86B20BE0FB
:102010004FEA4B10BAFBF0F000EB80004000A168E3
:10202000B0FBF1F0401D86B20A20B6FBF0F606F0D8
:102030000108A6EB0800C0F34F074FF6FF7000EA57
:102040000828022F01DBFF2F02DD02274FF00008D6
:10205000E08840EA080038432884A088A189084322
:10206000618808432188084340F4006040EA090978
:10207000A5F81C9005B0BDE8F08F002101804180DB
:102080008180C180018141818181C18107210182DB
:1020900070470021018041808180C18002218160E0
:1020A00000218181704721B1028842F04002028004
:1020B00004E002884FF6BF731A400280704721B1D6
:1020C000828B42F48062828304E0828B4FF6FF337E
:1020D0001A408283704730B5002400230C1101257B
:1020E000A540ABB21AB185881D43858002E0858882
:1020F0009D43858030BD1AB183880B43838002E005
:1021000083888B438380704781817047014688892B
:1021100070474FF6FF62914204D0028842F4807209
:10212000028004E002884FF6FF631A400280704785
:1021300021B1828842F00402828004E082884FF656
:10214000FB731A408280704702884FF2FF731A4077
:10215000028002880A4302807047018841F480515E
:102160000180704721B1028842F40052028004E0ED
:1021700002884DF6FF731A40028070470246002025
:10218000012901D0108B00E0908A70470146088A2F
:102190007047B1F5804F04D1028842F4804202803A
:1021A00004E002884BF6FF731A4002807047024633
:1021B000002013890B400BB1012000E00020704784
:1021C000CA4302817047F0B5024600200024002374
:1021D000002501F00F070126BE40B4B20B11012605
:1021E0009E40B3B2968806EA03051689264016B1CA
:1021F0000DB1012000E00020F0BD10B5002201F07B
:102200000F040123A3409AB2D343038110BD000001
:102210000030014000380040003C00400CB5002078
:10222000019000906C48006840F480306A49086072
:1022300000BF6948006800F4003000900198401C1D
:102240000190009818B90198B0F5A06FF1D16248DB
:10225000006800F4003010B10120009001E000207F
:1022600000900098012843D15C48006840F01000BD
:102270005A4908600846006820F0030008600846D4
:10228000006840F0020008605348406852494860C6
:102290000846406848600846406840F480604860EE
:1022A0000846406820F47C1048600846406840F4C6
:1022B000E81048600846006840F08070086000BF81
:1022C0004548006800F000700028F9D04248406896
:1022D00020F00300404948600846406840F0020092
:1022E000486000BF3C48406800F00C000828F9D165
:1022F0000CBD10B5FFF792FF10BD10B53648006851
:1023000040F00100344908600846406834490840FC
:102310003149486008460068324908402E49086043
:102320000846006820F4802008600846406820F4D1
:10233000FE0048604FF41F008860FFF7DAFF4FF09F
:1023400000602949086010BD10B50021002000225E
:10235000214B5B6803F00C0121B1042906D0082948
:1023600028D107E0214B224C236027E01F4B204C53
:10237000236023E0184B5B6803F47010164B5B6816
:1023800003F48032022303EB904022B9194B4343FC
:10239000174C23600DE0104B5B6803F4003323B14E
:1023A000144B4343124C236003E0104B4343104C47
:1023B000236003E00D4B0E4C236000BF00BF064BB3
:1023C0005B68C3F303130C4CE15C094B1B68CB4007
:1023D000074C236010BD00000010024000200240A6
:1023E0000000FFF8FFFFF6FE08ED00E000127A00A3
:1023F0006C00002000093D0070000020F0B480EA6D
:102400000102D40F4200B2EB410F02D2024608464D
:1024100011464A0042D0C30DDDB2C1F3C752AD1A16
:10242000202D35DAC1F3160141F4000204B1524205
:10243000C5F1200602FA06F12A411044B3EBD05F41
:1024400023D0C4B1012DA0EBC35009DCF0BC4FF088
:10245000004202EAC352DBB200F5000000F0A4B96A
:10246000400000F1807000EBC350A0F1807040EAA2
:10247000D170490009E0490841EAC071A0EBC3509E
:1024800000F50000400800EBC350F0BC00F083B939
:102490006142012202EB4101001BF6E7F0BC7047EC
:1024A00081F00041AAE780F00040A7E780EA01023E
:1024B00010B502F00043400022D04A001FD0010EA8
:1024C00001EB1261C0F35600C2F3560240F4000063
:1024D00042F40002A0FB022000047F39140400D063
:1024E000401C50EA124001D44000491EC2B20C0602
:1024F00004EBD010401C4008802A02D003E00020EA
:1025000010BD20F00100002900DA0020184310BDA2
:1025100030B480EA010202F0004530F0004221F0C0
:10252000004013D090B1C30DD40DC2F31601C0F317
:102530001600E41A41F4000140F400027D34914297
:1025400001D3641C00E04900002C02DA30BC0020FA
:1025500070474FF400000023914201D3891A0343CE
:1025600040084FEA4101F7D151B1914202D14FF0F9
:10257000004105E002D24FF0010101E06FF00101DE
:1025800003EBC450284430BC00F005B92DE9FE4FE0
:1025900081EA030404F0004421F0004100944FF06C
:1025A000000B23F0004350EA01045ED052EA03041A
:1025B0005BD0C3F30A54C1F30A552C44A4F2F3349C
:1025C0000194A0FB0254C1F3130141F48011C3F341
:1025D000130343F4801301FB024400FB034E840AFF
:1025E000970A44EA815447EA8357A4FB0768029597
:1025F0008D0A05FB07854FEA932C04FB0C54270535
:10260000029D4FEA065847EA1637B5EB08056EEB10
:10261000070C870E920E47EA811742EA8312A7FB46
:102620000201B6EB0B0164EB00042B0D43EA0C3303
:102630005E1844EB1C50DA465146E7FB0201C5F335
:1026400013044FEA0B3343EA14534FEA0432019C5C
:1026500043EA0603A4F10C040294009CCDE900B403
:1026600000F0DFF803B0BDE8F08F00200146F9E785
:10267000C10F80EAE0700844CA079623002100F0E9
:1026800093B800F0004230F000400AD0C10D01F5CF
:102690006071C0F3160042EA0151C20840071143BD
:1026A000704700200146704701F0004330B421F02C
:1026B000004150EA010206D00A0DA2F56072C1F392
:1026C0001301002A02DC30BC00207047440F44EAAA
:1026D000C104C100E01830BC00EBC25000F05BB890
:1026E000002801DBC0F10040002901DBC1F10041FD
:1026F00081427047002801DBC0F10040002901DB66
:10270000C1F100418842704730B50B4601460020B8
:102710002022012409E021FA02F59D4205D303FAA3
:1027200002F5491B04FA02F52844151EA2F1010224
:10273000F1DC30BD2DE9F05F0546002092469B4656
:1027400088460646814640241BE0284641464746C7
:10275000224600F01CFA53465A46C01A914110D343
:1027600011461846224600F003FA2D1A67EB0108BD
:102770004F4622460120002100F0FAF917EB00092C
:102780004E41201EA4F10104DFDC484631462A46B2
:102790004346BDE8F09F0029A8BF7047401C490090
:1027A00008BF20F00100704710B4B0FA80FC00FAB6
:1027B0000CF050EA010404BF10BC704749B1CCF1E1
:1027C000200421FA04F411FA0CF118BF012121436D
:1027D0000843A3EB0C01CB1D4FEA00614FEA102028
:1027E00042BF002010BC704700EBC35010440029CA
:1027F000A4BF10BC7047401C490008BF20F0010076
:1028000010BC704710B5141E73F1000408DA401CA8
:1028100041F1000192185B411A4301D120F00100FF
:1028200010BD2DE9F04D92469B4611B1B1FA81F2EF
:1028300002E0B0FA80F22032904600F099F90446A6
:102840000F4640EA0A0041EA0B0153465A46084344
:1028500013D0114653EA010019D0C8F14002504686
:1028600000F095F905460E4650465946424600F09E
:102870007FF9084305D0012004E020463946BDE831
:10288000F08D0020054346EAE0762C4337430A9852
:102890006305E40AA0EB08000022FD0A44EA47545D
:1028A0000A3002D500200146E9E701051019694107
:1028B000DDE9084500196941BDE8F04DA2E72DE9C1
:1028C000FE4F804681EA0300C00F0C46009021F0C5
:1028D000004123F00045B8EB0200A94105D2404673
:1028E000214690461C460B46024623F0004010430A
:1028F00047D0270DC7F30A00C3F30A510290401ACC
:10290000019040286BDAC3F3130040F4801B009859
:10291000924620B10023D2EB030A63EB0B0B019824
:102920005946C0F14002504600F022F906460D46D5
:1029300050465946019A00F03AF910EB08006141FF
:10294000002487EA115284EAE7731A4340D0009AC0
:1029500062B3019A012A4FEA075215DC001B61EBB2
:1029600002014FF0004202EA0752CDE90042001C8A
:1029700041F5801132462B46FFF753FF03B0BDE807
:10298000F08F40462146F9E7001B61EB0201001C75
:1029900041F5801300185B412018A2F5001747EBA2
:1029A000030140EAD570B6196D4111E06D084FEA98
:1029B000360645EAC0754FEA0752001B61EB02017B
:1029C000001C41F5801149084FEA300000195141BF
:1029D00032462B4603B0BDE8F04FFFF713BF009817
:1029E000012240000023D0EB020263EBE073009869
:1029F00021464FEAE074B8EB000061EB0401E9E71F
:102A000083F000435BE781F0004158E72DE9F04D8A
:102A100081EA030404F0004B21F0004514464FF016
:102A2000000A23F0004150EA050220D054EA0102D6
:102A30001DD0C5F30A570246C5F31303C1F31300B3
:102A4000C1F30A5640F4801543F48013A7EB06083F
:102A5000101BD64608F2FD3873EB050002D308F1CF
:102A6000010801E092185B41B8F1000F03DA002081
:102A70000146BDE8F08D00204FF4801106468446E3
:102A80000EE0171B73EB050705D3121B63EB050361
:102A900006434CEA010C49084FEA300092185B41AA
:102AA00050EA0107EDD152EA030012D082EA040095
:102AB00083EA0501084305D0101BAB4106D2012271
:102AC000002306E000224FF0004302E06FF0010215
:102AD00053101AEB06004CEB085110EB0A0041EBC7
:102AE0000B01BDE8F04DFFF78DBEC1F30A52C1F3F3
:102AF000130140F2FF3341F480119A4202DA0020C0
:102B00000146704740F233439A42A2F2334202DC5C
:102B1000524200F03CB800F02BB8000030B5041E63
:102B200071F1000404DB4FF00044404264EB01010A
:102B3000141E73F1000405DB1C464FF000435242A3
:102B400063EB0403994208BF904230BD064C074D29
:102B500006E0E06840F0010394E80700984710346D
:102B6000AC42F6D3FDF7E8FAA8340008C8340008F0
:102B7000202A04DB203A00FA02F10020704791403D
:102B8000C2F1200320FA03F3194390407047202A32
:102B900004DB203A21FA02F00021704721FA02F307
:102BA000D040C2F120029140084319467047202AC4
:102BB00006DBCB17203A41FA02F043EAE07306E065
:102BC00041FA02F3D040C2F1200291400843194675
:102BD000704700000FB4054B10B503A9044A0298D2
:102BE00000F0CAF810BC5DF814FB00006901000891
:102BF0008000002002E008C8121F08C1002AFAD194
:102C000070477047002001E001C1121F002AFBD16C
:102C1000704700002DE9FF5FDDE90220010DDDF8BE
:102C200038B0024318D044F61050A1F2FF314143AE
:102C30000D140F98012820D0A5EB0B00401C5FEA73
:102C4000000A4FF00004474EDFF81C91A0465046A2
:102C500016D5CAF1000728E00F98012443A20128E5
:102C600008D0002100980F9BC0E90021C0E9024371
:102C7000BDE8FF9F6FEA0B01F4E7CBF10000DEE750
:102C8000074612E0F80707D0224633464046494639
:102C9000FFF77CFC8046894622463346104619469B
:102CA000FFF774FC04460E467F10002FEAD1DDE9E1
:102CB0000201BAF1000F42464B4602DAFFF766FC0A
:102CC00001E0FFF7A3FE04460E460022284BFFF763
:102CD00025FF03D84FF0FF30014607E00022254BC7
:102CE00020463146FFF7EBFDFFF7FFFE102409E019
:102CF000002C0ADB0A220023FFF71CFD019B303267
:102D00001A55641E50EA0102F2D1641C019AC4F102
:102D1000110314440F9A012A03D0012208430DD154
:102D20000AE0084304D000204FF0110B0F9080E719
:102D3000A3EB0B056D1E0DE05B4504DD4FF00002BB
:102D400005F1010504E003DA4FF00002A5F10105E9
:102D5000002AECD000980F99C0E90231C0E9004583
:102D600086E70000000024400000F03F3000000033
:102D70000000F0430000E03F2DE9FF4F95B09B4677
:102D80008946064600250FE2252877D100242746EC
:102D9000F84A0121059400E0044316F8013F203B66
:102DA00001FA03F01042F7D130782A2811D06FF0E1
:102DB0002F033078A0F13002092A16D8059A44F082
:102DC000020402EB820203EB42021044761C0590DF
:102DD000EFE759F8042B0592002A03DA504244F435
:102DE0000054059044F00204761C30782E2816D149
:102DF00016F8010F44F004042A280DD06FF02F02BA
:102E00003078A0F13003092B09D807EB870302EBD8
:102E10004303C718761CF3E759F8047B761C307817
:102E20006C280FD006DC4C2817D068280DD06A28F3
:102E300014D104E0742810D07A280FD10DE044F4A6
:102E400000140AE044F4801401E044F44014727861
:102E5000824202D104F58014761C761C30786628F4
:102E60000BD013DC582877D009DC002875D0452812
:102E7000F6D04628F4D047281AD19DE118E06328FF
:102E800035D0642879D0652812D195E1702873D0A7
:102E900008DC6728F1D069286FD06E280DD06F2824
:102EA00006D1B5E073282CD0752875D0782874D059
:102EB0005A46179990476D1C75E1C4F302500228D9
:102EC00009D003280DD0D9F8001004280DD00D60CA
:102ED00009F1040967E1D9F80010EA17C1E90052C5
:102EE000F6E7D9F800100D80F2E70D70F0E719F859
:102EF000041B8DF8001000208DF80100EA46012027
:102F000003E059F804AB4FF0FF3061074FF00001C8
:102F100002D40DE008F101018846B9420FDA80457C
:102F2000F8DB1AF808100029F4D108E008F10101D3
:102F300088468142FADB1AF808100029F6D1059874
:102F40005B46A0EB080721463846179A00F094FA32
:102F5000284400EB080507E04DE029E10DE01AF8F0
:102F6000010B5A4617999047B8F10108F7D25B4612
:102F700021463846179A13E142E00A220092C4F330
:102F800002524FF0000A022A08D059F804CB032A53
:102F90004FEAEC710AD00DE029E02AE009F10701BF
:102FA00021F00702F2E802C1914609E00FFA8CFC19
:102FB0004FEAEC71042A03D14FFA8CFC4FEAEC7112
:102FC000002907DA0A460021DCF1000C61EB02015E
:102FD0002D2202E0220504D52B228DF804200122A7
:102FE00003E0E20701D02022F7E7904659E00A21EA
:102FF00002E010220DE010214FF0000A00910BE0DA
:1030000010224FF0000A44F004040827009203E065
:1030100008224FF0000A0092C4F30252022A05D09F
:1030200059F804CB0021032A08D009E009F107016F
:1030300021F00702F2E802C1914605E01FFA8CFC7C
:10304000042A01D10CF0FF0C4FF00008220728D50C
:10305000702806D0009B83F0100353EA0A0305D0C2
:103060000EE040228DF80420012208E05CEA010213
:1030700006D030228DF804208DF8050002229046FB
:10308000009B83F0080353EA0A030AD15CEA0102B9
:1030900001D1620705D530228DF804204FF00108D8
:1030A0007F1E582804D034A003900EA802900DE093
:1030B00036A0F9E753466046009AFFF73BFB84468B
:1030C0000398825C0298401E029002705CEA010044
:1030D000F0D1029806A9081A00F1200A600702D56B
:1030E00024F4803400E00127574502DDA7EB0A00F5
:1030F00000E0002000EB0A01009005984144401ACE
:103100000590E00306D45B462146179A059800F027
:10311000B3F90544002706E001A85A46C05D179997
:1031200090476D1C7F1C4745F6DBE0030CD55B46E2
:103130002146179A059800F09FF9054404E03020D5
:103140005A46179990476D1C0099481E0090002917
:10315000F5DC08E0029802995A460078491C029171
:10316000179990476D1CBAF10001AAF1010AF1DC30
:1031700065E100000928010030313233343536373B
:1031800038396162636465660000000030313233B3
:103190003435363738394142434445460000000053
:1031A00000F058F90544761C307800287FF4ECAD27
:1031B00019B02846BDE8F08F620700D4062709F150
:1031C000070222F0070CFCE80223E14603F0004866
:1031D0005FEA080C02D00FF2702C0DE05FEA045C8D
:1031E00002D50FF2682C07E05FEAC47C02D00FF230
:1031F000602C01E0AFF2700C4FF0FF3823F0004379
:10320000CDF850C065280CD006DC452809D04628EA
:103210001DD047283DD13DE0662818D067287ED1D3
:1032200038E00021112F01DB112000E0781CCDE9EE
:10323000000106A90EA8FFF7EDFCDDE90F010E9ACB
:1032400003910021009207F1010A04914DE04FF033
:1032500000400097CDE9011006A90EA8FFF7DAFC9F
:10326000DDE90F0203920E9B11990022DDF80CA0FC
:103270000093049211B9791C00EB010AB7EB0A0024
:1032800004D4C0F1FF3007F1010A0490AAEB070053
:10329000019044E0012F00DA01270021112F01DD08
:1032A000112000E03846CDE9000106A90EA8FFF77D
:1032B000B1FCDDE90F010E9A039100210491009207
:1032C000BA4621070CD40399514500DA8A46BAF16F
:1032D000010F05DD009AAAF10101515C302908D0E7
:1032E000B84202DA10F1040F06DA0121CDE901102B
:1032F00015E0AAF10101E9E7002805DC0499014481
:103300000491AAEB000102E0411C514500DD8A4610
:103310000499401A401C01904FF000400290200791
:1033200004D40198504501DBCDF8048000208DF8CD
:103330004F0002980DF14F07B0F1004F25D02B2020
:103340000E9002984FF0020800280CDA40420290DA
:103350002D200E9007E00A210298FFF7D5F93031B1
:10336000029007F8011DB8F10001A8F10108F2DC94
:1033700002980028EFD1791E0E980870307800F07E
:10338000200040F0450007F8020D12A8C01B00F114
:1033900007081498007800B1012000EB0A01019899
:1033A00001EBE07105984144401A401E0590E0038E
:1033B00006D45B462146179A059800F05DF805444F
:1033C0001498007818B15A46179990476D1CE0037D
:1033D00024D55B462146179A059800F04DF8054420
:1033E0001CE00498002807DBDDE90301884203DDC7
:1033F0000098405C179901E0179930205A46904791
:10340000049805F10105401C04900198401E0190AC
:1034100004D12E205A46179990476D1CBAF100012D
:10342000AAF1010ADDDC05E017F8010B5A461799ED
:1034300090476D1CB8F10001A8F10108F4DC5B466F
:103440002146179A0598ABE62D0000002B000000DE
:10345000200000002DE9F041044600251E461746D5
:10346000880404D405E039462020B0476D1C641E52
:10347000F9D52846BDE8F0812DE9F0410446002544
:103480001E469046C80301D5302700E02027880457
:1034900004D505E041463846B0476D1C641EF9D599
:1034A0002846BDE8F0810000C83400080000002074
:1034B00084000000F42B00084C3500088400002034
:1034C00064040000042C000800000000000000005C
:1034D00000000000000000000000000000000000EC
:1034E00000000000000000000000000000000000DC
:1034F00000000000000000000000000000000000CC
:1035000000000000000000000000000000000000BB
:10351000000000344310100134431010010000007B
:10352000000102030401020304060708090204065D
:103530000800000000A24A04000000000000000093
:0C35400001020304060708090000000057
:0400000508000131BD
:00000001FF
