:020000040800F2
:10000000E8040020450100084503000871030008CA
:1000100075030008790300087D0300080000000054
:100020000000000000000000000000008103000844
:100030008303000800000000850300088703000810
:100040005F0100085F0100085F0100085F01000810
:100050005F0100085F0100085F0100088D030008D0
:100060008F030008910300085F0100085F0100088A
:100070005F0100085F0100085F0100085F010008E0
:100080005F0100085F0100085F0100085F010008D0
:100090005F0100085F0100085F0100088B03000892
:1000A0005F0100085F0100085F0100085F010008B0
:1000B0005F010008890300085F0100085F01000874
:1000C0005F0100085F0100085F0100085F01000890
:1000D0005F01000847030008490300085F010008AA
:1000E0005F0100085F0100085F0100085F01000870
:1000F0005F0100085F0100085F0100085F01000860
:100100005F0100085F0100085F0100085F0100084F
:100110005F0100085F0100085F0100085F0100083F
:100120005F0100085F0100085F0100085F0100082F
:10013000DFF80CD001F0EAFE004800474F0200084B
:10014000E80400200648804706480047FEE7FEE72F
:10015000FEE7FEE7FEE7FEE7FEE7FEE7FEE7FEE777
:10016000AB1C00083101000870B504460D46E1B231
:100170004C4801F0DDFA00BF80214A4801F046FBFF
:100180000028F9D0204670BD08B54FF4C06001F0DA
:1001900025F925208DF8000000208DF801000220AF
:1001A0008DF8020001208DF80300684601F01BF96C
:1001B00008BD1FB54FF4E13000900020ADF80400F9
:1001C000ADF80600ADF80800ADF80C000C20ADF855
:1001D0000A006946334801F0B2F9012240F2255184
:1001E000304801F044FA01212E4801F034FA402150
:1001F0002C4801F018FB1FBD08B54FF40070ADF896
:10020000000003208DF8020018208DF803006946D5
:10021000254800F0C3FD4FF48060ADF800000420D5
:100220008DF803006946204800F0B8FD08BD10B500
:1002300001F03BFD0121042001F06CF8012188034D
:1002400001F068F80121084601F064F810BDFFF7DD
:10025000EEFFFFF7D1FFFFF7ACFFFFF795FF00F0D0
:10026000E4FC00F00AFB11A001F062FE19A001F00D
:100270005FFE21A001F05CFE00F03DFC2949087002
:1002800008460078012803D127A001F051FE02E0C2
:1002900019A001F04DFE03E000F0E6FC00F0FEFCCA
:1002A000FAE7000000380140000801400D0A20D59F
:1002B000E2CAC7D2BBB8F6204E524632344C303177
:1002C00020CEDECFDFB4ABCAE4CAB5D1E9200D0A37
:1002D000000000000D0A20D5E2CAC7CEDECFDFB491
:1002E000ABCAE420B4D3BBFAB6CB20B5C4B7B4C014
:1002F000A1D0C5CFA20D0A000D0A202020D5FDD423
:10030000DABCECB2E24E5246D3EB4D4355CAC7B706
:10031000F1D5FDB3A3C1ACBDD3A1A3A1A3A1A30DEE
:100320000A000000000000200D0A202020202020CC
:100330004E5246D3EB4D4355C1ACBDD3B3C9B9A65C
:100340000D0A00007047704710B540F22551114862
:1003500001F072FA58B10F4801F0EEF9C4B220462C
:1003600000F0FBF940F225510A4801F08FFA10BD68
:1003700000BFFEE700BFFEE700BFFEE700BFFEE7ED
:1003800070477047704770477047704770477047B5
:10039000704700000044004000B587B001214804C8
:1003A00000F0C5FF0420ADF8180003208DF81A00F6
:1003B00018208DF81B0006A9F94800F0EFFC082072
:1003C000ADF8180004208DF81B0006A9F44800F0D1
:1003D000E5FC4FF4C06001F001F826208DF8140010
:1003E00000208DF8150001208DF816008DF81700FB
:1003F00005A800F0F8FF4FF4E13001900020ADF8BF
:100400000800ADF80A00ADF80C00ADF810000C20A3
:10041000ADF80E0001A9E34801F091F8012240F285
:100420002551E04801F023F90121DE4801F013F9DC
:100430004021DC4801F0F7F907B000BD70B5002499
:10044000D9488478200204B2D748C078044304F421
:10045000004020B1C4F30E00404204B201E0C4F3F6
:100460000E04204601F012FD0546D04901F0D0FCF3
:10047000CF4908600024CC480479200204B2CA485D
:100480004079044304F4004020B1C4F30E0040421C
:1004900004B201E0C4F30E04204601F0F7FC054667
:1004A000C24901F0B5FCC34908600024BE48847904
:1004B000200204B2BC48C079044304F4004020B1D7
:1004C000C4F30E00404204B201E0C4F30E0420461F
:1004D00001F0DCFC0546B54901F09AFCB64908601C
:1004E0000024B148047A200204B2AF48407A0443A1
:1004F00004F4004020B1C4F30E00404204B201E015
:10050000C4F30E04204601F0C1FC0546A74901F0E2
:100510007FFCAA4908600024A348847A200204B220
:10052000A148C07A044304F4004020B1C4F30E0093
:10053000404204B201E0C4F30E04204601F0A6FCE0
:1005400005469A4901F064FC9D49086000249648DC
:10055000047B200204B29448407B044304F400402E
:1005600020B1C4F30E00404204B201E0C4F30E0413
:10057000204601F08BFC05468C4901F017FC91499F
:10058000086070BD002088498878010208B2864959
:10059000C978084300F4004121B1C0F30E0149427B
:1005A00008B201E0C0F30E008749088000207E49B0
:1005B0000879010208B27C494979084300F40041F6
:1005C00021B1C0F30E01494208B201E0C0F30E00B0
:1005D0007E490880002074498879010208B2724976
:1005E000C979084300F4004121B1C0F30E0149422A
:1005F00008B201E0C0F30E007549088000206A4986
:10060000087A010208B26849497A084300F40041B7
:1006100021B1C0F30E01494208B201E0C0F30E005F
:100620006C49088000206049887A010208B25E495E
:10063000C97A084300F4004121B1C0F30E014942D8
:1006400008B201E0C0F30E0063490880002056495B
:10065000087B010208B25449497B084300F4004179
:1006600021B1C0F30E01494208B201E0C0F30E000F
:100670005A49088000204C49887B010208B24A4947
:10068000C97B084300F4004121B1C0F30E01494287
:1006900008B201E0C0F30E00514908800020424931
:1006A000087C010208B24049497C084300F400413B
:1006B00021B1C0F30E01494208B201E0C0F30E00BF
:1006C0004849088000203849887C010208B2364930
:1006D000C97C084300F4004121B1C0F30E01494236
:1006E00008B201E0C0F30E003F490880704710B522
:1006F0000022002104E02C48405C0244481CC1B2A6
:1007000029480078801E8842F5DCD3B2264800785C
:10071000801E254C205C834201D1012010BD0020A9
:10072000FCE710B53148007800F04000A0B12F4838
:10073000007820F040002D490870FFF7D8FF58B12D
:1007400019484078A12801D1FFF778FE1648407873
:10075000A22801D1FFF716FF10BD10B50446A52C45
:100760000DD12248007840F08000204908702049CF
:100770000878411C1E4A11700B490C5464E05A2C35
:1007800047D11A48007800F0800098B3002018493B
:1007900008701648007820F040001449087031E0D5
:1007A0000008014000440040840000200000204177
:1007B000080000200C000020100000201400002081
:1007C000180000201C000020200000202200002033
:1007D0002400002026000020280000202A000020FD
:1007E0002C0000202E0000203000002005000020FA
:1007F00004000020FFE719490878411C174A1170CE
:1008000017490C541748007820F0800015490870EB
:100810001AE012490878411C104A117010490C5412
:100820001048007820F080000E4908700C480078CD
:1008300011460978884207D10A48007840F0400004
:1008400008490870FFF76DFF04480078642804D158
:1008500002480078401E0149087010BD04000020C5
:10086000840000200500002001B502E00098401E31
:10087000009000980028F9D108BD00B587B001218B
:100880004FF4AE7000F046FD0121080300F042FD78
:10089000E020ADF8040001208DF8060018208DF846
:1008A000070001A9D54800F079FA6020ADF80400EE
:1008B00001208DF8060010208DF8070001A9D0480E
:1008C00000F06CFA1020ADF8040001208DF806004D
:1008D00048208DF8070001A9C94800F05FFA4021BF
:1008E000C74800F008FB0020ADF808004FF4827004
:1008F000ADF80A000020ADF80C00ADF80E00ADF820
:1009000010004FF40070ADF812001020ADF8140084
:100910000020ADF816000720ADF8180002A9B9486C
:1009200000F0F4FF0121B74801F095F807B000BDD1
:1009300010B5044600BF0221B24801F010F90028AA
:10094000F9D02146AF4801F0B7F800BF0121AD480A
:1009500001F005F90028F9D0AA4801F0AFF8C0B2BB
:1009600010BD70B505460C462021A54800F0C5FA1B
:100970004021A34800F0C1FA2846FFF7D9FF0646F8
:100980002046FFF7D5FF40219D4800F0B4FA3046DD
:1009900070BD70B504462021994800F0AEFA4021A0
:1009A000974800F0AAFA2046FFF7C2FFFF20FFF7A2
:1009B000BFFF05464021924800F09DFA284670BDD1
:1009C0002DE9F04107460D46164620218C4800F0DF
:1009D00094FA40218A4800F090FA3846FFF7A8FFC1
:1009E0008046002405E0FF20FFF7A2FF2855601C89
:1009F000C4B2B442F7DB4021814800F07CFA4046A3
:100A0000BDE8F0812DE9F04107460C46154620214E
:100A10007B4800F072FA4021794800F06EFA3846BF
:100A2000FFF786FF8046002605E014F8010BFFF76C
:100A30007FFF701CC6B2AE42F7DB4021704800F069
:100A40005AFA4046BDE8F08110B520216C4800F00C
:100A500054FA05226C492A20FFF7D4FF01212120F6
:100A6000FFF77FFF01212220FFF77BFF28212520B0
:100A7000FFF777FF01213120FFF773FF0F212620B9
:100A8000FFF76FFF0F212020FFF76BFF20215C484D
:100A900000F031FA10BD10B52021594800F02DFAB0
:100AA00005225A493020FFF7ADFF052256492A207A
:100AB000FFF7A8FF01212120FFF753FF012122208A
:100AC000FFF74FFF1A212420FFF74BFF2821252095
:100AD000FFF747FF0F212620FFF743FF0E212020BD
:100AE000FFF73FFF2021464800F005FA4FF6FF7060
:100AF000FFF7BAFE10BD1FB545A103C9CDE902013C
:100B0000052202A93020FFF77DFF0522694610204B
:100B1000FFF756FF002406E01DF80400C22800D0AD
:100B200003E0601CC4B2052CF6DB00BF052C02D12B
:100B3000012004B010BD0020FBE770B50546202160
:100B40002F4800F0DAF901222946A020FFF75AFFCA
:100B500020212B4800F0CFF900BF1021284800F0D9
:100B6000B0F90028F9D10720FFF713FF044621460A
:100B70002720FFF7F6FEFF21E120FFF7F2FE04F049
:100B8000100008B1102070BD04F0200008B1202032
:100B9000F9E70020F7E770B50446FFF77CFF204631
:100BA000FFF7CBFF0546284670BD70B505462021EE
:100BB000134800F0A0F900BF1021114800F081F99E
:100BC0000028F9D120210E4800F097F90720FFF7FF
:100BD000E0FE044621462720FFF7C3FE04F0400054
:100BE00050B1012229466120FFF7EAFEFF21E220F1
:100BF000FFF7B7FE402070BD0020FCE70008014071
:100C00000010014000300140500000204B00002047
:100C1000C2C2C2C2C200000001B502E00098401E7C
:100C2000009000980028F9D108BD08B501210420E2
:100C300000F070FB0121102000F06CFB0120ADF8EA
:100C4000000028208DF803006946204800F0A6F82F
:100C50004FF40050ADF8000028208DF803006946DD
:100C60001B4800F09BF808BD08B51AA0006800906A
:100C70004FF40051164800F024F901280CD16846C1
:100C8000FFF789FF00BF4FF40051114800F019F938
:100C90000128F8D0012008BD0020FCE708B50EA00F
:100CA000006800900121094800F00BF901280BD1E0
:100CB0006846FFF770FF00BF0121044800F001F90A
:100CC0000128F9D0012008BD0020FCE70008014000
:100CD00000100140020000000100000010B50446B1
:100CE000CC48844208D10121042000F02DFB0021D2
:100CF000042000F029FB46E0C748844208D10121C6
:100D0000082000F021FB0021082000F01DFB3AE044
:100D1000C248844208D10121102000F015FB0021B7
:100D2000102000F011FB2EE0BD48844208D10121C3
:100D3000202000F009FB0021202000F005FB22E02C
:100D4000B848844208D10121402000F0FDFA00217A
:100D5000402000F0F9FA16E0B348844208D101219E
:100D6000802000F0F1FA0021802000F0EDFA0AE086
:100D7000AE48844207D10121801500F0E5FA002138
:100D8000A01500F0E1FA10BD10B50121084600F0F1
:100D9000DBFA0021012000F0D7FA10BD2DE9F04167
:100DA000024600250026002000230024002791F899
:100DB00003C00CF00F0591F803C00CF0100CBCF14F
:100DC000000F03D091F802C04CEA050591F800C06D
:100DD000BCF1000F31D0146800202BE04FF0010C63
:100DE0000CFA00F3B1F800C00CEA03069E4220D1D1
:100DF00083004FF00F0C0CFA03F7BC4305FA03FC19
:100E00004CEA040491F803C0BCF1280F06D14FF05E
:100E1000010C0CFA00FCC2F814C00AE091F803C0FF
:100E2000BCF1480F05D14FF0010C0CFA00FCC2F8E0
:100E300010C0401C0828D1D31460B1F800C0BCF128
:100E4000FF0F34DD546800202EE000F1080C4FF055
:100E5000010808FA0CF3B1F800C00CEA03069E4240
:100E600021D183004FF00F0C0CFA03F7BC4305FAB5
:100E700003FC4CEA040491F803C0BCF1280F05D12F
:100E800000F1080C08FA0CF8C2F8148091F803C0BD
:100E9000BCF1480F07D100F1080C4FF0010808FA27
:100EA0000CF8C2F81080401C0828CED35460BDE86E
:100EB000F0814FF6FF710180022181700421C17021
:100EC00070470246002093680B400BB1012000E000
:100ED000002070470146886880B2704702460020B3
:100EE000D3680B400BB1012000E0002070470146A1
:100EF000C86880B2704701617047416170470AB1AC
:100F0000016100E041617047C16070474FF4803279
:100F10000A43826181618261826982697047024607
:100F20000020434B18684FF68073184040EA0210C7
:100F300008433F4B186070473E49C8617047F0B5A1
:100F40000A46002300240021002500F00046B6F1E7
:100F5000004F02D1364EF16901E0354E7168C0F3A1
:100F6000034583B200F44016B6F5401F08D121F0C6
:100F700070612F4E766826F070662D4F7E6012E00D
:100F800000F48016B6F5801F06D1032606FA05F494
:100F9000A14341F0706106E0460D360103FA06F602
:100FA000B14341F0706122B1460D360103FA06F6F5
:100FB000314300F00046B6F1004F02D11C4EF16102
:100FC00001E01B4E7160F0BD30B500228B071C0F95
:100FD0000F2303FA04F2164B08338C1053F8243015
:100FE0009343134C08348D1044F8253023468C105D
:100FF00053F824308C07240F00FA04F423430C4CDC
:1010000008348D1044F8253030BD0A49DC310860C1
:101010007047000000080140000C01400010014032
:101020000014014000180140001C01400020014054
:101030000000014000002042DF48006840F001004D
:10104000DD49086008464068DC490840DA494860E4
:1010500008460068DA490840D74908600846006831
:1010600020F4802008600846406820F4FE004860B4
:101070004FF41F0088607047CF49096821F4803120
:10108000CD4A11601146096821F480211160B0F544
:10109000803F03D0B0F5802F0ED106E0C649096825
:1010A00041F48031C44A116007E0C349096841F442
:1010B000A021C14A116000E000BF00BF704710B519
:1010C00001460022002300204A11012A02D1BA4C15
:1010D000236806E0022A02D1B74C236A01E0B64C2D
:1010E000636A01F01F02012494401C400CB10120EE
:1010F00000E0002010BD38B500200090002400253D
:1011000000BF3120FFF7DBFF05460098401C009030
:101110000098B0F5A06F01D0002DF2D03120FFF77C
:10112000CEFF08B1012400E00024204638BD01466E
:101130000020A14A106820F0F80040EAC1001060C9
:101140007047A04908607047024600209A4B5868D3
:1011500020F47C1042EA01031843974B5860704713
:1011600098490866704701460020934A506820F06D
:1011700003000843506070478F48406800F00C003F
:101180007047014600208C4A506820F0F000084368
:101190005060704701460020874A506820F4E060A4
:1011A00008435060704701460020834A506820F48D
:1011B000605040EAC1005060704729B17E4A527ABF
:1011C00002437D4B5A7204E07B4A527A82437A4B47
:1011D0005A7270477B49D831086070470146002039
:1011E000754A506820F44040084350607047002121
:1011F000714A20321170704A82F82010012802D002
:1012000004280AD104E001216B4A2032117005E064
:101210000521694A2032117000E000BF00BF70470D
:101220006949086070476449096A0143624A11626A
:101230007047654944390860704730B50021002285
:10124000002400235C4D6D6805F00C0121B10429D8
:1012500005D0082923D105E05C4D056022E05B4DF7
:1012600005601FE0544D6D6805F47012524D6D68B5
:1012700005F48034022505EB92421CB9544D5543C8
:1012800005600BE04C4D6D6805F400351DB1504D07
:101290005543056002E04D4D5543056002E04B4D5E
:1012A000056000BF00BF444D6D6805F0F0010909FD
:1012B000484D6B5C0568DD4045603F4D6D6805F449
:1012C000E061090A434D6B5C4568DD4085603A4D3D
:1012D0006D6805F46051C90A3E4D6B5C4568DD40A0
:1012E000C560354D6D6805F44041890B3A4D6B5C26
:1012F000C568B5FBF3F5056130BD29B12E4A5269C9
:1013000002432D4B5A6104E02B4A526982432A4B17
:101310005A61704729B1284A92690243264B9A6163
:1013200004E0254A92698243234B9A61704729B1B0
:10133000214AD2690243204BDA6104E01E4AD26995
:1013400082431D4BDA61704729B11B4AD2680243C0
:10135000194BDA6004E0184AD2688243164BDA600F
:10136000704729B1144A12690243134B1A6104E011
:10137000114A12698243104B1A6170471249403971
:10138000086070470F49C86470470B49C8717047BF
:101390000948406A40F0807007494862704701463A
:1013A0000020054A92680A400AB1012000E00020AE
:1013B0007047014988727047001002400000FFF832
:1013C000FFFFF6FE000042428004424200127A0013
:1013D00000093D005500002065000020314901430F
:1013E000314A1160704770B5002100230F22C47884
:1013F00004B32D4C246804F4E064C4F5E064210ACD
:10140000C1F10403CA40447804FA03F1847814401B
:1014100021430901254C0678A155047804F01F05E5
:101420000124AC4005786D11AD0005F1E025C5F84B
:10143000004109E0047804F01F050124AC401C4D74
:101440000678761145F8264070BD1A4A0A400243D4
:10145000154B1B1F1A60704739B1134A121D1268D1
:101460000243114B1B1D1A6006E00F4A121D126841
:1014700082430D4B1B1D1A607047042808D14FF0A2
:10148000E021096941F004014FF0E022116107E019
:101490004FF0E021096921F004014FF0E0221161D1
:1014A000704700000000FA050CED00E000E400E0E9
:1014B00080E100E080FFFF1F10B50446FB48844236
:1014C00009D101218803FFF73FFF00214FF480403D
:1014D000FFF73AFF32E0F648844209D1012148047F
:1014E000FFF73FFF00214FF40030FFF73AFF25E000
:1014F000F048844209D101218804FFF732FF00211E
:101500004FF48020FFF72DFF18E0EB48844209D10B
:101510000121C804FFF725FF00214FF40020FFF749
:1015200020FF0BE0E548844208D101210805FFF7C0
:1015300018FF00214FF48010FFF713FF10BD2DE9B5
:10154000F04786B005460E460024A24600BFA146DD
:101550000027B08900B100BF2F462C8A4CF6FF70DF
:101560000440F08804432C82AC894EF6F31004400A
:10157000B08831890843718908430443AC81AC8A3F
:101580004FF6FF400440B0890443AC8201A8FFF746
:1015900054FEC648874202D1DDF810A001E0DDF814
:1015A0000CA0A88900F4004040B10AEBCA0000EB8F
:1015B0000A1031684900B0FBF1F807E00AEBCA00F5
:1015C00000EB0A1031688900B0FBF1F86420B8FB29
:1015D000F0F004012009642101FB1089A88900F4BE
:1015E000004040B1322000EBC900B0FBF1F000F048
:1015F0000700044308E0322000EB09106421B0FB2F
:10160000F1F000F00F0004432C8106B0BDE8F08734
:101610004FF41651016000218180C18001810C21AD
:10162000418100218181704710B502460020108A57
:101630004FF2FF0318400B884C8823438C882343C8
:10164000CC8823431843108210BD002101804180C3
:101650008180C180704721B1828942F40052828129
:1016600004E082894DF6FF731A4082817047F0B51D
:101670000346002400260025002040F66A17B942E0
:1016800000D100BF1846C1F3421401F01F06012724
:1016900007FA06F5012C01D10C3004E0022C01D12F
:1016A000103000E014301AB107682F43076002E0E1
:1016B0000768AF430760F0BD1AB1838A0B4383828A
:1016C00002E0838A8B4383827047028A4FF6F0736D
:1016D0001A400282028A0A430282704782894FF2CC
:1016E000FF731A40828182890A438281704721B147
:1016F000828942F00202828104E082894FF6FD7302
:101700001A4082817047028A4FF6DF731A400282C4
:10171000028A0A430282704721B1028A42F480425F
:10172000028204E0028A4BF6FF731A40028270477D
:10173000C1F308028280704701468888C0F3080020
:101740007047818941F0010181817047028BD2B2DB
:101750000283028B42EA012202837047028B02F469
:101760007F420283028B0A430283704721B1828A3F
:1017700042F02002828204E0828A4FF6DF731A4030
:101780008282704721B1828A42F01002828204E094
:10179000828A4FF6EF731A408282704721B1828AA3
:1017A00042F00802828204E0828A4FF6F7731A4000
:1017B0008282704721B1828942F40042828103E033
:1017C0008289C2F30E028281704721B1828A42F47B
:1017D0000062828204E0828A4FF2FF731A408282A2
:1017E0007047828A4FF6FB731A408282828A0A43CC
:1017F0008282704721B1828A42F00202828204E032
:10180000828A4FF6FD731A4082827047024600209A
:10181000B1F5007F00D100BF13880B400BB1012050
:1018200000E00020704701F40072B2F5007F00D1A3
:1018300000BFCA430280704770B5024600240023EF
:101840000025002040F66A16B14200D100BFC1F366
:10185000421501F01F03012606FA03F3012D02D100
:101860009689334006E0022D02D1168A334001E00A
:10187000968A33400C12012606FA04F41688344086
:1018800013B10CB1012000E0002070BD10B50022A2
:10189000002340F66A14A14200D100BF0A120124BD
:1018A0009440A3B2DC43048010BD00000038014026
:1018B0000044004000480040004C00400050004000
:1018C00010B50446BE48844208D101218014FFF7B8
:1018D0003BFD0021A014FFF737FD16E0B948844214
:1018E00008D101210014FFF73CFD00212014FFF76F
:1018F00038FD0AE0B448844207D10121C013FFF744
:1019000030FD0021E013FFF72CFD10BD10B50022C3
:10191000028802F441520B884C8823438C8823436D
:10192000CC8823430C8923434C8923438C8923434C
:10193000CC8923431A430280838B4FF2FF742340E8
:1019400083830B8A038210BD2DE9F04F85B00546D5
:101950000C464FF0000902274FF000084FF0010B32
:101960000026B246A88B4FF240010840A88302200F
:101970002884B5F81C90A068022801D100BF38E087
:10198000A08810B94FF0010B01E04FF0020B8D4819
:10199000854200D100E000BF6846FFF74EFCDDF84D
:1019A00000A0E088B0F5007F0AD14FEA1A2000EBD2
:1019B00080004000A168B0FBF1F0401D86B20BE052
:1019C0004FEA4B10BAFBF0F000EB80004000A1683A
:1019D000B0FBF1F0401D86B20A20B6FBF0F606F02F
:1019E0000108A6EB0800C0F34F074FF6FF7000EAAE
:1019F0000828022F01DBFF2F02DD02274FF000082D
:101A0000E08840EA080038432884A088A189084378
:101A1000618808432188084340F4006040EA0909CE
:101A2000A5F81C9005B0BDE8F08F00210180418031
:101A30008180C180018141818181C1810721018231
:101A400070470021018041808180C1800221816036
:101A500000218181704721B1028842F0400202805A
:101A600004E002884FF6BF731A400280704721B12C
:101A7000828B42F48062828304E0828B4FF6FF33D4
:101A80001A408283704730B5002400230C110125D1
:101A9000A540ABB21AB185881D43858002E08588D8
:101AA0009D43858030BD1AB183880B43838002E05B
:101AB00083888B4383807047818170470146888982
:101AC00070474FF6FF62914204D0028842F4807260
:101AD000028004E002884FF6FF631A4002807047DC
:101AE00021B1828842F00402828004E082884FF6AD
:101AF000FB731A408280704702884FF2FF731A40CE
:101B0000028002880A4302807047018841F48051B4
:101B10000180704721B1028842F40052028004E043
:101B200002884DF6FF731A4002807047024600207B
:101B3000012901D0108B00E0908A70470146088A85
:101B40007047B1F5804F04D1028842F48042028090
:101B500004E002884BF6FF731A4002807047024689
:101B6000002013890B400BB1012000E000207047DA
:101B7000CA4302817047F0B50246002000240023CA
:101B8000002501F00F070126BE40B4B20B1101265B
:101B90009E40B3B2968806EA03051689264016B120
:101BA0000DB1012000E00020F0BD10B5002201F0D1
:101BB0000F040123A3409AB2D343038110BD000058
:101BC0000030014000380040003C00400CB50020CF
:101BD000019000906C48006840F480306A490860C9
:101BE00000BF6948006800F4003000900198401C74
:101BF0000190009818B90198B0F5A06FF1D1624832
:101C0000006800F4003010B10120009001E00020D5
:101C100000900098012843D15C48006840F0100013
:101C20005A4908600846006820F00300086008462A
:101C3000006840F00200086053484068524948601C
:101C40000846406848600846406840F48060486044
:101C50000846406820F47C1048600846406840F41C
:101C6000E81048600846006840F08070086000BFD7
:101C70004548006800F000700028F9D042484068EC
:101C800020F00300404948600846406840F00200E8
:101C9000486000BF3C48406800F00C000828F9D1BB
:101CA0000CBD10B5FFF792FF10BD10B536480068A7
:101CB00040F0010034490860084640683449084053
:101CC0003149486008460068324908402E4908609A
:101CD0000846006820F4802008600846406820F428
:101CE000FE0048604FF41F008860FFF7DAFF4FF0F6
:101CF00000602949086010BD10B5002100200022B5
:101D0000214B5B6803F00C0121B1042906D008299E
:101D100028D107E0214B224C236027E01F4B204CA9
:101D2000236023E0184B5B6803F47010164B5B686C
:101D300003F48032022303EB904022B9194B434352
:101D4000174C23600DE0104B5B6803F4003323B1A4
:101D5000144B4343124C236003E0104B4343104C9D
:101D6000236003E00D4B0E4C236000BF00BF064B09
:101D70005B68C3F303130C4CE15C094B1B68CB405D
:101D8000074C236010BD00000010024000200240FC
:101D90000000FFF8FFFFF6FE08ED00E000127A00F9
:101DA0006C00002000093D007000002080EA010264
:101DB00010B502F00043400022D04A001FD0010EAF
:101DC00001EB1261C0F35600C2F3560240F400006A
:101DD00042F40002A0FB022000047F39140400D06A
:101DE000401C50EA124001D44000491EC2B20C0609
:101DF00004EBD010401C4008802A02D003E00020F1
:101E000010BD20F00100002900DA0020184310BDA9
:101E100030B480EA010202F0004530F0004221F0C7
:101E2000004013D090B1C30DD40DC2F31601C0F31E
:101E30001600E41A41F4000140F400027D3491429E
:101E400001D3641C00E04900002C02DA30BC002001
:101E500070474FF400000023914201D3891A0343D5
:101E600040084FEA4101F7D151B1914202D14FF000
:101E7000004105E002D24FF0010101E06FF00101E5
:101E800003EBC450284430BC00F009B8C10F80EA0D
:101E9000E0700844CA079623002100F009B8002921
:101EA000A8BF7047401C490008BF20F001007047E0
:101EB00010B4B0FA80FC00FA0CF050EA010404BF40
:101EC00010BC704749B1CCF1200421FA04F411FA96
:101ED0000CF118BF012121430843A3EB0C01CB1DDA
:101EE0004FEA00614FEA102042BF002010BC70474B
:101EF00000EBC35010440029A4BF10BC7047401C25
:101F0000490008BF20F0010010BC7047064C074D87
:101F100006E0E06840F0010394E8070098471034B9
:101F2000AC42F6D3FEF708F9801F0008A01F000896
:101F3000014A024900F013B869010008800000203E
:101F400002E008C8121F08C1002AFAD17047704782
:101F5000002001E001C1121F002AFBD170472DE9CA
:101F6000F04116460F460446002503E03946B047C7
:101F7000641C6D1C20780028F8D12846BDE8F0814B
:101F8000A01F00080000002084000000401F00087F
:101F9000242000088400002064040000501F000872
:101FA0000000000000000000000000000000000031
:101FB0000000000000000000000000000000000021
:101FC0000000000000000000000000000000000011
:101FD0000000000000000000000000000000000001
:101FE0000000000000000000000000344310100159
:101FF0003443101001000000000102030401020339
:1020000004060708090204060800000000A24A04AA
:102010000000000000000000010203040607080998
:0420200000000000BC
:0400000508000131BD
:00000001FF
